:020000040800F2
:100000009805002001010008271C0008191A0008A3
:10001000251C00086F070008BD2000080000000034
:100020000000000000000000000000002B1C000881
:100030007107000800000000291C00082D1C0008A2
:100040001B0100081B0100081B0100081B01000820
:100050001B0100081B0100081B0100081B01000810
:100060001B0100081B0100081B0100081B01000800
:100070001B0100081B0100081B0100081B010008F0
:100080001B0100081B0100081B0100081B010008E0
:100090001B0100081B0100081B0100081B010008D0
:1000A0001B0100081B0100081B0100081B010008C0
:1000B0001B010008911C0008000000001B01000843
:1000C0001B01000800000000000000001B010008E8
:1000D00000000000A5200008B1200008000000007A
:1000E0001B0100081B0100081B010008DFF80CD0F1
:1000F00000F00AFB00480047F1290008980500209D
:100100000648804706480047FEE7FEE7FEE7FEE7B1
:10011000FEE7FEE7FEE7FEE7FEE7FEE78F1C0008CE
:10012000ED000008202A04DB203A21FA02F0002129
:10013000704721FA02F3D040C2F1200291400843F7
:1001400019467047D2B201E000F8012B491EFBD2DC
:1001500070470022F6E710B513460A4604461946D2
:10016000FFF7F0FF204610BD2DE9F04D81EA0304B2
:1001700004F0004B21F0004514464FF0000A23F034
:10018000004150EA050220D054EA01021DD0C5F317
:100190000A570246C5F31303C1F31300C1F30A560D
:1001A00040F4801543F48013A7EB0608101BD646D5
:1001B00008F2FD3873EB050002D308F1010801E0F5
:1001C00092185B41B8F1000F03DA00200146BDE848
:1001D000F08D00204FF48011064684460EE0171B78
:1001E00073EB050705D3121B63EB050306434CEACB
:1001F000010C49084FEA300092185B4150EA0107B0
:10020000EDD152EA030012D082EA040083EA05012C
:10021000084305D0101BAB4106D20122002306E0A3
:1002200000224FF0004302E06FF0010253101AEB7E
:1002300006004CEB085110EB0A0041EB0B01BDE846
:10024000F04D00F0BAB80EB540F2334102910021F2
:10025000CDE900110A460B4600F0BEF803B000BD20
:1002600000F0004230F000400AD0C10D01F560718D
:10027000C0F3160042EA0151C2084007114370471B
:1002800000200146704701F0004330B421F00041E6
:1002900050EA010206D00A0DA2F56072C1F3130103
:1002A000002A02DC30BC00207047440F44EAC1043D
:1002B000C100E01830BC00EBC25000F047B830B5C8
:1002C0000B46014600202022012409E021FA02F514
:1002D0009D4205D303FA02F5491B04FA02F52844AE
:1002E000151EA2F10102F1DC30BD2DE9F05F0546DB
:1002F000002092469B4688460646814640241BE0E5
:100300002846414647462246FFF70CFF53465A46C9
:10031000C01A914110D311461846224600F006FA41
:100320002D1A67EB01084F4622460120002100F0FC
:10033000FDF917EB00094E41201EA4F10104DFDC9A
:10034000484631462A464346BDE8F09F0029A8BFEB
:100350007047401C490008BF20F00100704710B4EE
:10036000B0FA80FC00FA0CF050EA010404BF10BCA3
:10037000704749B1CCF1200421FA04F411FA0CF1D0
:1003800018BF012121430843A3EB0C01CB1D4FEA09
:1003900000614FEA102042BF002010BC704700EB04
:1003A000C35010440029A4BF10BC7047401C490032
:1003B00008BF20F0010010BC704710B5141E73F187
:1003C000000408DA401C41F1000192185B411A4315
:1003D00001D120F0010010BD2DE9F04D92469B4661
:1003E00011B1B1FA81F202E0B0FA80F22032904607
:1003F00000F09CF904460F4640EA0A0041EA0B016E
:1004000053465A46084313D0114653EA010019D007
:10041000C8F140025046FFF785FE05460E4650469D
:100420005946424600F082F9084305D0012004E015
:1004300020463946BDE8F08D0020054346EAE076C7
:100440002C4337430A986305E40AA0EB0800002216
:10045000FD0A44EA47540A3002D500200146E9E784
:10046000010510196941DDE9084500196941BDE838
:10047000F04DA2E72DE9FE4F804681EA0300C00F50
:100480000C46009021F0004123F00045B8EB02003B
:10049000A94105D24046214690461C460B460246DD
:1004A00023F00040104347D0270DC7F30A00C3F3E1
:1004B0000A510290401A019040286BDAC3F31300EE
:1004C00040F4801B0098924620B10023D2EB030A2F
:1004D00063EB0B0B01985946C0F14002504600F007
:1004E00025F906460D4650465946019A00F02DF969
:1004F00010EB08006141002487EA115284EAE77397
:100500001A4340D0009A62B3019A012A4FEA075277
:1005100015DC001B61EB02014FF0004202EA0752BA
:10052000CDE90042001C41F5801132462B46FFF711
:1005300053FF03B0BDE8F08F40462146F9E7001BAA
:1005400061EB0201001C41F5801300185B4120188B
:10055000A2F5001747EB030140EAD570B6196D41CB
:1005600011E06D084FEA360645EAC0754FEA0752BA
:10057000001B61EB0201001C41F5801149084FEAA4
:1005800030000019514132462B4603B0BDE8F04F10
:10059000FFF713BF0098012240000023D0EB0202B6
:1005A00063EBE073009821464FEAE074B8EB00007B
:1005B00061EB0401E9E783F000435BE781F0004170
:1005C00058E72DE9FE4F81EA030404F0004421F0CE
:1005D000004100944FF0000B23F0004350EA010467
:1005E0005ED052EA03045BD0C3F30A54C1F30A5548
:1005F0002C44A4F2F3340194A0FB0254C1F3130180
:1006000041F48011C3F3130343F4801301FB02444C
:1006100000FB034E840A970A44EA815447EA835751
:10062000A4FB076802958D0A05FB07854FEA932C0A
:1006300004FB0C542705029D4FEA065847EA16377B
:10064000B5EB08056EEB070C870E920E47EA811793
:1006500042EA8312A7FB0201B6EB0B0164EB000434
:100660002B0D43EA0C335E1844EB1C50DA4651461E
:10067000E7FB0201C5F313044FEA0B3343EA1453BB
:100680004FEA0432019C43EA0603A4F10C040294ED
:10069000009CCDE900B4FFF79FFE03B0BDE8F08FEA
:1006A00000200146F9E7C1F30A52C1F3130140F2F9
:1006B000FF3341F480119A4202DA0020014670476C
:1006C00040F233439A42A2F2334202DC5242FFF735
:1006D00029BD00F02BB8000030B5041E71F10004F4
:1006E00004DB4FF00044404264EB0101141E73F13F
:1006F000000405DB1C464FF00043524263EB040349
:10070000994208BF904230BD064C074D06E0E068B4
:1007100040F0010394E8070098471034AC42F6D348
:10072000FFF7E8FC082C0008282C0008202A04DB2E
:10073000203A00FA02F1002070479140C2F12003F4
:1007400020FA03F3194390407047202A06DBCB17A9
:10075000203A41FA02F043EAE07306E041FA02F37C
:10076000D040C2F120029140084319467047FEE78D
:10077000704772B6FEE710B590F8211000220229EA
:1007800005D00421816380F82020012010BD01687C
:100790000B6823F00E030B6001680B6823F0010364
:1007A0000B6090F84030C46B012101FA03F36360E1
:1007B00080F8211080F82020104610BD10B590F868
:1007C00021100024022903D00421816301243DE08B
:1007D00001680A6822F00E020A6001680A6822F0C5
:1007E00001020A601A4A0168914201D1012121E007
:1007F000174A1432914201D110211BE0144A2832C9
:10080000914201D1891515E0114A3C32914201D142
:1008100089140FE00E4A5032914202D14FF48031D8
:1008200008E00B4A6432914202D14FF4801101E09A
:100830004FF08071064A083A5160012180F821107A
:10084000002180F82010416B01B18847204610BD7F
:10085000080002402DE9F84FDFF89C91002409F1CF
:10086000040A0AF1040B23460F270BF1040EBBE028
:100870000125A5402A40AA4276D1DFF880C14E6802
:10088000A6EB0C0866452BD00DDC032E34D005DC1E
:1008900036B3012E19D0022E2FD11BE0112E16D007
:1008A000122E2AD119E0B8F5881F19D006DCB8F548
:1008B000803F15D0B8F5801F1FD111E0B8F5001F9B
:1008C0000ED0B8F5041F18D10AE0CB6815E0CB684C
:1008D0001B1D12E0CB6808330FE0CB680C330CE033
:1008E0008B682BB1012B4FF0080303D0456104E066
:1008F000042302E0056100E00023FF2A01D8064638
:1009000001E000F104064FEA840501D9A5F12005B4
:10091000D6F8008007FA05FC28EA0C0803FA05F56A
:1009200048EA0508C6F800804D68ED005BD5344DF7
:10093000AE6946F00106AE61AD6924F0030605F02C
:10094000010500952F4D06EB050CDCF80850A607B5
:10095000360F07FA06F825EA0805DFF8AC804045AF
:1009600003D14FF0000810E03DE0DFF8A0804045E3
:1009700002D14FF0010808E0DFF89480404502D131
:100980004FF0020801E04FF0030808FA06F848EAC1
:100990000508CCF808804D68D9F80060ED034D4695
:1009A00001D5164300E096432E604D68DAF80060EA
:1009B000AD03554601D5164300E096432E604D68C1
:1009C000DBF80060ED025D4601D5164300E096437A
:1009D0002E604D68DEF80060AD02754601D5164305
:1009E00000E096432E60641C0A6832FA04F57FF436
:1009F0003FAFBDE8F88F0000000401400000111077
:100A0000001002400000014000080140000C0140BD
:100A1000001001400AB1016170470904FBE70000C2
:100A20000148806870470000240000200248816867
:100A3000027811448160704724000020074810B5F7
:100A4000016841F010010160032000F075F80020FA
:100A500000F006F800F024F8002010BD002002404D
:100A600070B50D4D04464FF47A712878B1FBF0F063
:100A70000A490968B1FBF0F000F0ECFA48B9102C13
:100A800007D200222146501E00F036F800206C608C
:100A900070BD012070BD0000240000203000002047
:100AA0000C4808B5816941F001018161816901F05B
:100AB00001010091C16941F08051C161C06900F03C
:100AC000805000900448416821F0E06141F080616D
:100AD000416008BD0010024000000140002809DB11
:100AE00000F01F02012191404009800000F1E02048
:100AF000C0F8001170470000F0B40E4B1B680C46A4
:100B0000C3F30223C3F10705042D00D90425191DE1
:100B1000072901D2002300E0DB1E012606FA05F1B9
:100B2000491E214099409E40761E16403143F0BC3C
:100B300001F0D6BA0CED00E0064900F007020868A3
:100B40004FF6FF03184040EA0220034A10430860B2
:100B5000704700000CED00E00000FA052DE9F047B9
:100B60000F46050061D0434E306800F00700B842E0
:100B700009D2306820F0070038433060306800F058
:100B80000700B84251D128683B4C810712D5400775
:100B900003D5606840F4E06060602878000703D502
:100BA000606840F4605060606068A96820F0F00000
:100BB000084360602878C00728D06868012810D0F2
:100BC0002168022810D0890700292EDA616821F0F7
:100BD000030101436160FFF723FF804641F288393A
:100BE0000DE021688903EFE78901EDE7FFF718FFC2
:100BF000A0EB0801494502D90320BDE8F0876068F1
:100C0000696800F00C00B0EB810FEFD1306800F0A4
:100C10000700B8420BD9306820F007003843306035
:100C2000306800F00700B84201D00120E5E72878DD
:100C3000400705D56068E96820F4E060084360601B
:100C40002878000706D56068296920F4605040EADA
:100C5000C100606000F038F86168084AC1F3031110
:100C6000515CC8400649086006480068FFF7F8FE76
:100C70000020C2E70020024000100240F02B0008D4
:100C80003000002028000020044805490068496819
:100C9000044AC1F30221515CC84070473000002073
:100CA00000100240002C000804480549006849680B
:100CB000044AC1F3C221515CC84070473000002093
:100CC00000100240002C000812A185B00FC98DE869
:100CD0000F0014A0144A006804905168134801F0F2
:100CE0000C03042B10D0082B0ED1C1F38343C9038E
:100CF0001DF803000AD5516804AAC1F34041515CB4
:100D00000A4A5043B0FBF1F005B070470849484328
:100D1000FAE7000002030405060708090A0B0C0D98
:100D20000E0F1010010200000010024000127A00A5
:100D300000093D002DE9F84F040070D02078C04D27
:100D4000C00749D06868C0F38100012807D06868EF
:100D5000C0F38100022809D16868C00306D528685D
:100D6000800339D560680028E7D035E06068B0F5C9
:100D7000803F0BD010B1B0F5A02F11D0286820F41F
:100D800080302860286820F4802002E0286840F441
:100D900080302860606890B1FFF742FE06460AE0A6
:100DA000286840F480202860F0E700BFFFF738FE95
:100DB000801B642873D828688003F7D50CE0FFF700
:100DC0002FFE064605E000BFFFF72AFE801B6428C1
:100DD000F0D828688003F7D420789A4E80074FF027
:100DE00001094FF0000839D5686810F00C0F07D0E2
:100DF0006868C0F38100022809D16868C00306D47E
:100E00002868800714D52069012808D110E02069DE
:100E1000B0B1C6F80090FFF703FE074605E00AE10F
:100E2000FFF7FEFDC01B0228C4D828688007F7D54D
:100E30002868616920F0F80040EAC10028600DE0F0
:100E4000C6F80080FFF7ECFD074604E0FFF7E8FD79
:100E5000C01B022823D828688007F7D42078000711
:100E60002CD57948A169D9B1C0F80090FFF7D8FD19
:100E7000074604E0FFF7D4FDC01B02280FD8686ABC
:100E80008007F7D571484FF4FA510068B0FBF1F0D4
:100E9000009000BF0098411E0091FAD20EE080E061
:100EA000C0F80080FFF7BCFD074604E0FFF7B8FD7F
:100EB000C01B022875D8686A8007F7D420784007DD
:100EC00060D5E8690027C00008D4E86940F0805088
:100ED000E861E869012700F0805000905C480168F3
:100EE000C90513D40168834641F480710160FFF79E
:100EF00097FD824606E000BFFFF792FDA0EB0A00D7
:100F000064284ED8DBF80000C005F5D5E06801285C
:100F10000AD008B1052813D0286A20F00100286201
:100F2000286A20F0040002E0286A40F001002862EC
:100F3000E06841F2883B98B1FFF772FD82460BE012
:100F4000286A40F004002862EEE700BFFFF768FD62
:100F5000A0EB0A0159455AD8286A8007F6D50CE05B
:100F6000FFF75EFD824605E0FFF75AFDA0EB0A01A0
:100F700059454CD8286A8007F6D41FB1E86920F09B
:100F80008050E861E06988B36968C1F38101022992
:100F900044D00228C6F8608004D0FFF741FD044623
:100FA00038E034E0FFF73CFD074604E0FFF738FD8A
:100FB000C01B02282BD828688001F7D4206AB0F51E
:100FC000803F05D16868A16820F40030084368605C
:100FD000D4E908010843696821F474110843686082
:100FE000C6F86090FFF71CFD044606E025E000BF50
:100FF000FFF716FD001B022809D828688001F7D5E5
:101000001BE000BFFFF70CFD001B022802D90320E4
:10101000BDE8F88F28688001F4D40EE00128F7D0ED
:101020006868226A00F48031914204D1616A00F458
:101030007010884201D00120EAE70020E8E70000B4
:101040000010024000004242800442423000002072
:101050000070004010B5401EB0F1807F01D3012028
:1010600010BD4FF0E02460610F21601701F038F8E7
:101070000020A06107202061002010BD704770474C
:1010800010B590F83C20012A22D0012280F83C20A3
:10109000CA688C6822F4407222434C6822F4806251
:1010A00022430C6822F4006222430C6922F480522D
:1010B00022434C6922F400522243C969002322F4DE
:1010C00080420A4301684A6480F83C30002010BD29
:1010D000022010BD70B590F83C20012A23D00124D5
:1010E00080F83C40022280F83D2003685A689D68E1
:1010F00022F070060A6832435A600C4B02689A422A
:1011000005D0B2F1804F02D0094B9A4204D1496810
:1011100025F080031943916080F83D40002180F85C
:101120003C10084670BD022070BD0000002C01403C
:1011300000040040704770B50446006801694FF034
:101140000005C943890715D4C168C943890711D46B
:10115000E91E016101202077206880698007204610
:1011600002D0FFF7E7FF04E000F0CEF8204600F0E1
:101170007BF9257720680169C943490717D4C168FD
:10118000C943490713D46FF004010161022020779D
:101190002068806910F4407F204602D0FFF7CAFF24
:1011A00004E000F0B1F8204600F05EF925772068F1
:1011B0000169C943090716D4C168C943090712D494
:1011C0006FF008010161042020772068C069800762
:1011D000204602D0FFF7AEFF04E000F095F820466D
:1011E00000F042F9257720680169C943C90617D480
:1011F000C168C943C90613D46FF01001016108200A
:1012000020772068C06910F4407F204602D0FFF7A5
:1012100091FF04E000F078F8204600F025F92577EA
:1012200020680169C943C90708D1C168C943C90712
:1012300004D1891E0161204600F062F9206801692D
:10124000C943090609D4C168C943090605D46FF02A
:10125000800101612046FFF711FF20680169C94341
:10126000490609D4C168C943490605D46FF0400155
:101270000161204600F045F920680169C9438906EB
:101280000BD4C168C943890607D46FF020010161FE
:101290002046BDE87040FFF7F2BE70BD10B586B0C5
:1012A00000210091019102910391144C03681449AB
:1012B00002221448A3420DD18B6943F004038B61D1
:1012C0008969039201F0040104914FF44071CDE962
:1012D00000120DE0B3F1804F0DD18B6943F0040390
:1012E0008B618969009201F004010192CDE903212B
:1012F0006946FFF7AFFA06B010BD0000002C0140B0
:101300000010024000080140704770B5044690F894
:101310003C000D4601280AD0012084F83C0042B16F
:10132000042A18D0082A2AD00C2A4DD139E00220EC
:1013300070BD206800F0EEFC2068816941F0080172
:1013400081612068816921F00401816120688169DF
:101350002A69114311E0206800F004FD20688169CA
:1013600041F4006181612068816921F480618161BB
:10137000206881692A6941EA0221816124E02068AC
:1013800000F01CFD2068C16941F00801C1612068BE
:10139000C16921F00401C1612068C1692A69114352
:1013A00011E0206800F036FD2068C16941F4006159
:1013B000C1612068C16921F48061C1612068C1698F
:1013C0002A6941EA0221C161002084F83C0070BD15
:1013D00010B5040003D094F83D0010B107E00120DF
:1013E00010BD002084F83C00204600F01FF80220C9
:1013F00084F83D00211D206800F050FC012084F895
:10140000460084F83E0084F83F0084F8400084F8E9
:10141000410084F8420084F8430084F8440084F8D2
:10142000450084F83D00002010BD000008B50C4ABE
:1014300001680C48914207D1816941F400618161E2
:10144000806900F4006009E0B1F1804F07D1C16903
:1014500041F00101C161C06900F00100009008BDC8
:10146000002C0140001002407047000010B50446F7
:10147000022249B104290ED0082913D094F8410062
:10148000012816D0012010BD94F83E000128F9D1A2
:1014900084F83E200FE094F83F000128F2D184F850
:1014A0003F2008E094F840000128EBD184F8402068
:1014B00001E084F841200122206800F01DFC0E4963
:1014C0002068884203D1426C42F4004242642068A2
:1014D000884205D0B0F1804F02D00849884204D13B
:1014E000816801F00701062903D0016841F001017C
:1014F0000160002010BD0000002C014000040040ED
:101500007047704770477047F8B502680446106826
:10151000D168536910F00F0F4FF0000553D003F05E
:10152000010601F4907737435FD0C20705D0CA05A2
:1015300003D5226C42F001022264420705D5DA0786
:1015400003D0226C42F002022264820705D5DA073A
:1015500003D0226C42F004022264020707D501F096
:101560002002324303D0226C42F008022264226C33
:10157000002A34D0800604D5880602D5204600F023
:101580008BFC20684069216CC0F38010090700D4EF
:1015900030B3204600F068FC2068416949061BD53D
:1015A000416921F040014161A06BA8B158494163F4
:1015B000A06BFFF703F9002811D0A06B416B01B0BD
:1015C000BDE8F040084783060FD58B060DD52046B1
:1015D000BDE8F84000F060BC2046FFF794FFF8BD7E
:1015E0002046FFF790FF2564F8BD266B2023012ECF
:1015F00052D1C60650D5CE064ED510685068009020
:10160000506940062AD5A16B086840680004000CA8
:10161000EAD0A68D8642E7D9E0858869202818D0CF
:10162000D06820F48070D0602068416921F0010109
:1016300041612068416921F04001416184F83E30F8
:1016400025632068C16821F01001C160A06BFFF71D
:1016500092F8A08DE18D401A81B219E0A08DE18D44
:10166000401A81B2E08D0028BED00029BCD0D068DD
:1016700020F49070D0602068426922F0010242613B
:1016800084F83E3025632068C26822F01002C260F0
:101690002046FFF737FFF8BD05062BD50D0629D5E7
:1016A00094F83D002128F6D1A068B0F5805F01D103
:1016B0002069B0B1206A411C21622168007848602D
:1016C000E08C401E0004000CE084E4D12068C16876
:1016D00021F08001C1602068C16841F04001C16013
:1016E000F8BD206A0088C0F308005060206A801CA2
:1016F0002062E5E74006F3D54806F1D5D1682046DB
:1017000021F04001D16084F83D3000F084F9F8BD4B
:10171000591E000870B5040004D094F83D0000255F
:1017200010B106E0012070BD84F83C50204600F066
:1017300023F8242084F83D002068C16821F400517A
:10174000C160204600F004FC2068016921F490414A
:1017500001612068416921F02A0141612068C16866
:1017600041F40051C1602564202084F83D0084F8D4
:101770003E00002070BD000030B585B0002400940C
:10178000019402940394324D0368324802210322EB
:10179000AB422ED1836943F480438361836903F4B0
:1017A00080430493836943F00803836180692A4D71
:1017B00000F0080004904020CDE900010392694642
:1017C0002846FFF747F88020CDE9000469462846FF
:1017D0000294FFF73FF82148416841F0E06141F091
:1017E00004014160002211462520FFF785F92520DC
:1017F00029E01B4DAB4228D1C36943F40033C361D8
:10180000C36903F400330493836943F004038361E1
:101810008069144D00F0040004900420CDE900011B
:10182000039269462846FFF715F80820CDE9000421
:10183000694628460294FFF70DF80022114626203B
:10184000FFF75AF92620FFF749F905B030BD00002F
:101850000038014000100240000C0140000001402F
:10186000004400400008014090F83E30202B0ED18B
:1018700059B152B190F83C30012B08D0012380F8C7
:101880003C300023036300F0BFBB012070470220FF
:10189000704700002DE9F0412F49064600680968AD
:1018A000884257D12D4C002504F11C0122790A7081
:1018B000E560FF2A0AD0A078052821D2A0780A5432
:1018C000401CC0B2A070052802D013E0A570F5E757
:1018D0000879FE280ED14A788878CF781318BB4251
:1018E00008D10978FF2905D11C49891D0A70487063
:1018F0000120607019490122091D1748FFF7B4FF44
:1019000017493068096888421CD16279FE2A0CD0D8
:10191000E078042816D21148E17810304254491C6E
:10192000C9B2E170042902D00CE0E570F3E7017858
:10193000FE2907D18178FF2904D1C178FF2901D17F
:1019400040782070BDE8F04104490122491D044857
:10195000FFF78ABFBDE8F0811001002000000020E1
:10196000540100202DE9F843044690F83D001F463D
:1019700016460D4620284CD1C5B1BEB194F83C00A6
:10198000012846D0012084F83C004FF00008C4F83C
:101990004080212084F83D00FFF742F8A68481466C
:1019A000E684A068B0F5805F03D004E00120BDE8C4
:1019B000F883206928B12E465FF0000584F83C804A
:1019C0000EE00026FAE78021204600F038FBA0B99F
:1019D000AEB116F8010B21684860E08C401EE0842F
:1019E000E08C4B464FF0000200970028EBD14FF0FF
:1019F0004001204600F023FB30B10320D7E735F843
:101A0000020BC0F30800E6E7202084F83D00002028
:101A1000CDE70220CBE77047FEE7000070B586B047
:101A2000002418480094019402940394816941F0C1
:101A300020018161816901F020010491816941F0F7
:101A400004018161816901F004010491816941F01F
:101A50000801816180690C4E00F008004FF4E055E8
:101A60000490002229463046FEF7D4FF012000955D
:101A7000CDE901040220039069463046FEF7EAFEF4
:101A800006B070BD001002400008014010B592B0D1
:101A900000240F941C2168461094FEF75AFB202165
:101AA00007A8FEF756FB2548234901604721C0E9F6
:101AB000011444F62061C0E9031444618461FFF716
:101AC00087FC08B1FEF755FE0F940FA91B48109430
:101AD000FFF700FB08B1FEF74CFE602000904FF4CA
:101AE000FA70CDE901040394049405940022694638
:101AF00012480694FFF709FC08B1FEF73AFE0422EB
:101B000069460E48FFF701FC08B1FEF732FE079464
:101B1000089409944FF400500A94CDE90B4007A9AA
:101B200006480E94FFF7ACFA08B1FEF722FE034810
:101B3000FFF7B4FB12B010BD002C014038000020AC
:101B400010B58AB0002407941C2168460894FEF75B
:101B500000FB17484FF0804101604721C0E90114A4
:101B60004FF47A71C0E903148461FFF731FC08B1C6
:101B7000FEF7FFFD079407A90D480894FFF7AAFA9E
:101B800008B1FEF7F6FD602000904FF4FA70CDE941
:101B900001040422694606480494FFF7B6FB08B125
:101BA000FEF7E7FD0248FFF779FB0AB010BD000021
:101BB000800000200C4810B50A4901604FF4E13163
:101BC0004160002181600C22C160C0E90412816182
:101BD000C161FFF79FFD002803D0BDE81040FEF76C
:101BE000C8BD10BD00380140100100200C4810B5E0
:101BF0000A4901604FF4E1314160002181600C220B
:101C0000C160C0E904128161C161FFF783FD002852
:101C100003D0BDE81040FEF7ACBD10BD004400404D
:101C200054010020FEE7FEE770477047FEF7FEBE56
:101C300030B58FB028216846FEF78BFA14210AA828
:101C4000FEF787FA01210804CDE900100024029470
:101C500002250491CDE907504FF4E0100990684641
:101C6000FFF768F808B172B6FEE70F20CDE90A0564
:101C70004FF48060CDE90C4002210AA80E94FEF7D3
:101C80006DFF002801D072B6FEE70FB030BD70477F
:101C90000148FFF750BA0000C800002070B5026884
:101CA000134B144C4FF08046984203D0B04201D001
:101CB000A04203D122F070054A682A43984203D01B
:101CC000B04201D0A04203D122F44074CA6822433A
:101CD0004C6922F08002224302608A68C2620A686C
:101CE0008262984201D1096901630121416170BD9D
:101CF000002C01400004004010B501F01F03012139
:101D0000046A99408C430462016A9A40114301625B
:101D100010BD000030B5026A22F001020262026AC0
:101D20004368846924F073050C682C4322F0020593
:101D30008A682A430A4DA8420BD122F00805CA68D6
:101D400023F440732A434D6922F004021D438B693A
:101D50002B434360846149684163026230BD0000E7
:101D6000002C014030B5026A22F010020262026AC1
:101D7000436884690D6824F4E64444EA05248D68C8
:101D800022F0200242EA05120B4DA8420ED1CD6886
:101D900022F0800242EA05124D6923F4406343EACF
:101DA00085038D6922F0400243EA85034360846124
:101DB00049688163026230BD002C014030B5026A7F
:101DC00022F480720262036A4268C46923F40073D9
:101DD00024F073050C682C438D6843EA05230C4DF1
:101DE000A8420ED1CD6823F4006343EA05234D6970
:101DF00022F4405242EA05128D6923F4806342EADC
:101E000005124260C4614968C163036230BD0000CD
:101E1000002C014030B5026A22F480520262046A4A
:101E20004268C3690D6823F4E64343EA05238D68DD
:101E300024F4005444EA0534064DA84204D14D6907
:101E400022F4804242EA85124260C361496801641B
:101E5000046230BD002C014010B5406A0021C185EC
:101E6000C184FFF750FB10BD0168CA6822F490726C
:101E7000CA6001684A6922F001024A61016B0129C6
:101E800004D10168CA6822F01002CA60202180F8DB
:101E90003E1000210163704708B590F83E102229DA
:101EA00001D0022008BD82684FF480539A4201D1CC
:101EB000016921B1816A9A421BD04AB10AE00268E5
:101EC000816A5268C2F308020A80816A891C08E0AC
:101ED000026972B10268526802F07F020A70816A78
:101EE000491C8162C18D491E0904090CC18503D0BA
:101EF00019E002685268F1E70168CA6822F020021E
:101F0000CA600168CA6822F48072CA6001684A69BE
:101F100022F001024A61202180F83E10016B012964
:101F200003D0FFF7B7FC002008BD00210163016862
:101F3000CA6822F01002CA6001680A68D20602D597
:101F40000A6849680091818DFFF7DCFAEBE7000031
:101F500070B5044600680169E26821F440511143FC
:101F600001612169A0680843616908432168CA6862
:101F700041F20C639A430243CA6020684169A26936
:101F800021F44071114341611E492068884202D109
:101F9000FEF78AFE01E0FEF777FE00EBC00101EBE1
:101FA0000012606864218000B2FBF0F3B3FBF1F330
:101FB0006FF018067343B2FBF0F5B2FBF0F605EBD9
:101FC0008305322303EB0515B5FBF1F5B6FBF1F6FE
:101FD00005F0F00505EB0615B2FBF0F6B2FBF0F0EC
:101FE000B0FBF1F06FF01802504306EB800003EBFA
:101FF0000010B0FBF1F0216800F00F002844886069
:1020000070BD00000038014081628285C2850021D8
:102010000164222280F83E2080F83C100168CA68E2
:1020200042F48072CA6001684A6942F001024A6162
:102030000068C16841F02001C160002070472DE9AF
:10204000F041984617460E460446069D1DE0681C62
:102050001BD02DB1FEF7E4FCA0EB0800A84214D978
:102060002068C16821F4D071C1602068416921F005
:1020700001014161202084F83D0084F83E000020E9
:1020800084F83C000320BDE8F0812068006836EA4F
:10209000000004D00020B842D9D00020F3E701208E
:1020A000F9E700000148FFF72FBA000010010020F7
:1020B0000148FFF729BA000054010020FEE70000A4
:1020C0000FB4054B10B503A9044A029800F0EAF8D2
:1020D00010BC5DF814FB0000D52900083400002076
:1020E0000907090E002804DB00F1E02080F8001445
:1020F000704700F00F0000F1E02080F8141D7047D9
:1021000002E008C8121F08C1002AFAD170477047C0
:10211000002001E001C1121F002AFBD1704700001E
:102120002DE9FF5F82B00021DDE90430020DDDF80A
:1021300040B0034318D044F61050A2F2FF3242439D
:102140001514119801281FD0A5EB0B00401C5FEA65
:10215000000A4FF000064E4FDFF83891B046504667
:1021600015D5CAF1000413E0119801244AA30128EF
:1021700001D16FEA0B010298119AC0E90031C0E960
:10218000024206B0BDE8F09FCBF10000DFE7044655
:102190000021404A491842EB0450CDE9001012E0FA
:1021A000E00707D032463B4640464946FEF709FA6B
:1021B0008046894632463B4610461946FEF701FAEC
:1021C00006460F466410002CEAD1DDE90401DDE982
:1021D0000023BAF1000F06DAFEF7F3F942464B4648
:1021E000FEF7EFF905E0FDF7BFFF42464B46FDF76E
:1021F000BBFF04460E460022284BFEF76DFA03D8BB
:102200004FF0FF30014607E00022254B20463146C3
:10221000FEF730F9FEF747FA102409E0002C0ADB3C
:102220000A220023FEF761F8039B30321A55641E20
:1022300050EA0102F2D1641C039AC4F11103144460
:10224000119A012A03D0012208430DD10AE0084364
:1022500004D000204FF0110B119072E7A3EB0B0597
:102260006D1E0DE05B4504DD4FF0000205F1010538
:1022700004E003DA4FF00002A5F10105002AECD0DA
:1022800002981199C0E90231C0E9004579E70000E0
:10229000000014400000F03F300000000000F04358
:1022A0000000E03F2DE9FF4F95B09B46894606466A
:1022B00000250FE2252877D100242746F84A01217E
:1022C000059400E0044316F8013F203B01FA03F0B7
:1022D0001042F7D130782A2811D06FF02F033078D0
:1022E000A0F13002092A16D8059A44F0020402EB44
:1022F000820203EB42021044761C0590EFE759F886
:10230000042B0592002A03DA504244F4005405904D
:1023100044F00204761C30782E2816D116F8010FEE
:1023200044F004042A280DD06FF02F023078A0F179
:102330003003092B09D807EB870302EB4303C718C7
:10234000761CF3E759F8047B761C30786C280FD0A4
:1023500006DC4C2817D068280DD06A2814D104E078
:10236000742810D07A280FD10DE044F400140AE04C
:1023700044F4801401E044F440147278824202D1A3
:1023800004F58014761C761C307866280BD013DC9C
:10239000582877D009DC002875D04528F6D0462883
:1023A000F4D047281AD19DE118E0632835D064287D
:1023B00079D0652812D195E1702873D008DC6728A0
:1023C000F1D069286FD06E280DD06F2806D1B5E006
:1023D00073282CD0752875D0782874D05A46179950
:1023E00090476D1C75E1C4F30250022809D0032800
:1023F0000DD0D9F8001004280DD00D6009F10409A2
:1024000067E1D9F80010EA17C1E90052F6E7D9F8F8
:1024100000100D80F2E70D70F0E719F8041B8DF83D
:10242000001000208DF80100EA46012003E059F871
:1024300004AB4FF0FF3061074FF0000102D40DE014
:1024400008F101018846B9420FDA8045F8DB1AF835
:1024500008100029F4D108E008F101018846814202
:10246000FADB1AF808100029F6D105985B46A0EBB4
:10247000080721463846179A00F094FA284400EBE2
:10248000080507E04DE029E10DE01AF8010B5A4676
:1024900017999047B8F10108F7D25B4621463846B4
:1024A000179A13E142E00A220092C4F302524FF05D
:1024B000000A022A08D059F804CB032A4FEAEC712B
:1024C0000AD00DE029E02AE009F1070121F0070216
:1024D000F2E802C1914609E00FFA8CFC4FEAEC7178
:1024E000042A03D14FFA8CFC4FEAEC71002907DA79
:1024F0000A460021DCF1000C61EB02012D2202E012
:10250000220504D52B228DF80420012203E0E207E6
:1025100001D02022F7E7904659E00A2102E010227C
:102520000DE010214FF0000A00910BE010224FF057
:10253000000A44F004040827009203E008224FF048
:10254000000A0092C4F30252022A05D059F804CBC3
:102550000021032A08D009E009F1070121F0070250
:10256000F2E802C1914605E01FFA8CFC042A01D171
:102570000CF0FF0C4FF00008220728D5702806D079
:10258000009B83F0100353EA0A0305D00EE04022BB
:102590008DF80420012208E05CEA010206D0302216
:1025A0008DF804208DF8050002229046009B83F0F0
:1025B000080353EA0A030AD15CEA010201D1620767
:1025C00005D530228DF804204FF001087F1E5828D1
:1025D00004D034A003900EA802900DE036A0F9E7D5
:1025E00053466046009AFDF780FE84460398825C5D
:1025F0000298401E029002705CEA0100F0D102983D
:1026000006A9081A00F1200A600702D524F48034D4
:1026100000E00127574502DDA7EB0A0000E000209B
:1026200000EB0A01009005984144401A0590E00330
:1026300006D45B462146179A059800F0B3F9054485
:10264000002706E001A85A46C05D179990476D1C07
:102650007F1C4745F6DBE0030CD55B462146179A05
:10266000059800F09FF9054404E030205A46179978
:1026700090476D1C0099481E00900029F5DC08E089
:10268000029802995A460078491C0291179990477E
:102690006D1CBAF10001AAF1010AF1DC65E100004C
:1026A0000928010030313233343536373839616228
:1026B00063646566000000003031323334353637EC
:1026C00038394142434445460000000000F058F9C3
:1026D0000544761C307800287FF4ECAD19B028460C
:1026E000BDE8F08F620700D4062709F1070222F047
:1026F000070CFCE80223E14603F000485FEA080CFF
:1027000002D00FF2702C0DE05FEA045C02D50FF2EC
:10271000682C07E05FEAC47C02D00FF2602C01E075
:10272000AFF2700C4FF0FF3823F00043CDF850C0EB
:1027300065280CD006DC452809D046281DD047283E
:102740003DD13DE0662818D067287ED138E00021D1
:10275000112F01DB112000E0781CCDE9000106A952
:102760000EA8FFF7DDFCDDE90F010E9A03910021B1
:10277000009207F1010A04914DE04FF000400097EC
:10278000CDE9011006A90EA8FFF7CAFCDDE90F028A
:1027900003920E9B11990022DDF80CA00093049285
:1027A00011B9791C00EB010AB7EB0A0004D4C0F19F
:1027B000FF3007F1010A0490AAEB0700019044E002
:1027C000012F00DA01270021112F01DD112000E087
:1027D0003846CDE9000106A90EA8FFF7A1FCDDE906
:1027E0000F010E9A0391002104910092BA4621072D
:1027F0000CD40399514500DA8A46BAF1010F05DD80
:10280000009AAAF10101515C302908D0B84202DADD
:1028100010F1040F06DA0121CDE9011015E0AAF14B
:102820000101E9E7002805DC049901440491AAEBC1
:10283000000102E0411C514500DD8A460499401A1E
:10284000401C01904FF000400290200704D40198F2
:10285000504501DBCDF8048000208DF84F00029830
:102860000DF14F07B0F1004F25D02B200E900298AC
:102870004FF0020800280CDA404202902D200E9002
:1028800007E00A210298FDF71AFD3031029007F89F
:10289000011DB8F10001A8F10108F2DC029800283E
:1028A000EFD1791E0E980870307800F0200040F0CB
:1028B000450007F8020D12A8C01B00F10708149884
:1028C000007800B1012000EB0A01019801EBE071F2
:1028D00005984144401A401E0590E00306D45B462B
:1028E0002146179A059800F05DF805441498007881
:1028F00018B15A46179990476D1CE00324D55B46E2
:102900002146179A059800F04DF805441CE00498FC
:10291000002807DBDDE90301884203DD0098405C05
:10292000179901E0179930205A469047049805F10D
:102930000105401C04900198401E019004D12E20F6
:102940005A46179990476D1CBAF10001AAF1010A85
:10295000DDDC05E017F8010B5A46179990476D1C0E
:10296000B8F10001A8F10108F4DC5B462146179A92
:102970000598ABE62D0000002B00000020000000B1
:102980002DE9F041044600251E461746880404D46C
:1029900005E039462020B0476D1C641EF9D5284655
:1029A000BDE8F0812DE9F041044600251E46904621
:1029B000C80301D5302700E02027880404D505E0AE
:1029C00041463846B0476D1C641EF9D52846BDE81F
:1029D000F081000038B504468DF800000223012282
:1029E00069460248FEF7BEFF204638BD540100206C
:1029F000FEF724F8FFF71CF9FFF710F8FFF746F889
:102A0000FFF79EF8FFF7D6F8FFF7F0F8584840F2C6
:102A1000C44102685163006840F2D6618163554E3B
:102A20004FF4C87031688863534D012291022846E3
:102A3000FDF7F0FF0022E9142846FDF7EBFF002226
:102A4000A9142846FDF7E6FF00214948FEF70EFDD0
:102A500004214748FEF70AFD04213046FEF706FD33
:102A6000012246494648FEF7FFFE44490122491C1F
:102A70004448FEF7F9FEDFF80481DFF80C9108F115
:102A800002084FF0030A4FF6FF7B0027A8F1060467
:102A9000E068401CE060484501D1FA2003E03B4972
:102AA000884202D264203168886301223349344865
:102AB000FEF7DAFE31490122491C3248FEF7D4FE06
:102AC0002078022803D0012805D070B11BE084F8DB
:102AD00000A0002202E084F800A001224FF400616F
:102AE0002846FDF797FF002208E084F800A00022A6
:102AF0004FF400612846FDF78DFF01224FF480510D
:102B00002846FDF787FF60780128C1D198F80110A9
:102B1000616198F8001031B1012906D01CA0FFF7BF
:102B2000CFFA6770B4E71DA000E022A0FFF7C8FA53
:102B300012495B460322091D1248FEF713FF606924
:102B4000FDF781FB0022224BFDF70EFBFDF79BFBFF
:102B5000A061FDF785FB02460B461EA0FFF7B0FA09
:102B600006495B460322091D0648FEF7FBFED8E72F
:102B700038000020800000200008014004000020F0
:102B80001001002054010020404B4C0040420F0037
:102B900074302E7478743D222564220074302E74B3
:102BA00078743D22BAB8B7ECD6CAC1BFA3BABACFBF
:102BB000B8F1220074302E7478743D22BAB8B7ECA4
:102BC000D6CAC1BFA3BAB2BBBACFB8F122000000C7
:102BD0000000594074312E7478743D22D6C3D0C59C
:102BE000C2CAA3BA20202020252E3266220000006F
:102BF00000000000000000000102030406070809AD
:102C00000000000001020304282C0008000000203E
:102C10003800000000210008602C00083800002067
:102C200060050000102100080300050400000000FA
:102C3000FFFFFF00404B4C000000000000000000C0
:102C40000000000000000000000000000100000083
:102C500010000000000000000024F400000000004C
:04000005080000ED02
:00000001FF
